:020000040800F2
:1000000000C00020A9020008AD020008AF020008ED
:10001000B1020008B3020008B502000800000000A9
:10002000000000000000000000000000B70200080F
:10003000B902000800000000BB020008BD02000871
:10004000C5020008C5020008C5020008C502000874
:10005000C5020008C5020008C5020008C502000864
:10006000C5020008C5020008C5020008C502000854
:10007000C5020008C5020008C5020008C502000844
:10008000C5020008C5020008C5020008C502000834
:10009000C5020008C5020008C5020008C502000824
:1000A000C5020008C5020008C5020008C502000814
:1000B000C5020008C5020008C5020008C502000804
:1000C000C5020008C5020008C5020008C5020008F4
:1000D000C5020008C5020008C5020008C5020008E4
:1000E00075090008C5020008C5020008C50200081D
:1000F000C5020008C5020008C5020008C5020008C4
:10010000C5020008C5020008C5020008C5020008B3
:10011000C5020008C5020008C5020008C5020008A3
:10012000C5020008C5020008C5020008C502000893
:1001300000000000000000000000000000000000BF
:1001400000000000000000000000000000000000AF
:10015000000000000000000000000000000000009F
:10016000000000000000000000000000000000008F
:10017000000000000000000000000000000000007F
:10018000000000000000000000000000000000006F
:10019000000000000000000000000000000000005F
:1001A000000000000000000000000000000000004F
:1001B000000000000000000000000000000000003F
:1001C000000000000000000000000000000000002F
:1001D000000000000000000000000000000000001F
:1001E0005FF8E0F107B500F07BF80023234A2449CB
:1001F0009818884204D22349595899500433F5E796
:10020000214B224A934203D2002243F8042BF8E701
:1002100000F068F8684601A900F05AF81C4D1D4B23
:100220000024ED1AAD101E46AC4204DA56F8242024
:1002300090470134F8E7184B184D0024ED1AAD1023
:100240001E46AC4204DA56F8242090470134F8E701
:100250009DE8030000F0D8FA114D124C0646641BCD
:10026000A41005EB8405002C04DD55F8043D013C89
:100270009847F8E7304600F027F800BF000000205C
:1002800030000020B40900083000002034000020B5
:10029000C8020008C8020008C8020008C802000816
:1002A000C8020008C802000805480047FEE7FEE74C
:1002B000FEE7FEE7FEE7FEE7FEE7FEE77047000029
:0802C000E5010008FEE7000063
:1002C80008B500F00DF8000001230360014B0B6036
:1002D800704700BF0000002000F012B800F08AB894
:1002E800BFF34F8F044A054BD16801F4E0610B431B
:1002F800D360BFF34F8FFEE700ED00E00400FA057E
:10030800384B82B01A6842F001021A605968364ABE
:100318000A405A601A6822F0847222F480321A6005
:100328001A6822F480221A605A6822F4FE025A607F
:100338004FF41F029A600022009201921A6842F458
:1003480080321A601A6802F400320192009A01326F
:100358000092019A1AB9009AB2F5A06FF2D11A6800
:1003680012F4003218BF01220192019A012A05D025
:100378001E4B4FF000629A6002B070471C4A116829
:1003880041F010011160116821F00301116011683A
:1003980041F0020111605A685A605A685A605A68F6
:1003A80042F480625A605A6822F47C125A605A6891
:1003B80042F4E8125A601A6842F080721A601968AA
:1003C800084A8901FBD5516821F003015160516841
:1003D80041F0020151605A6802F00C02082AFAD171
:1003E800C6E700BF001002400000FFF800ED00E083
:1003F80000200240114A124B516801F00C010429F7
:1004080001D0082901D00F490EE051685068C1F3A6
:100418008341C00301F1020102D55068800301D570
:10042800094800E007484143196052680749C2F388
:100438000312895C1A68CA401A60704700100240AB
:100448001800002000127A0000093D000800002072
:1004580040F0BF60024B40F40030D860704700BFE6
:1004680000ED00E0C27810B50378FAB1154A447877
:10047800D26803F16043D243C2F30222C2F10401FD
:1004880004FA01F10F2424FA02F2847803F5614397
:1004980022400A431201D2B283F8002303780122D2
:1004A800590903F01F0302FA03F306E05909012270
:1004B80003F01F0302FA03F32031034A42F8213004
:1004C80010BD00BF00ED00E000E100E01C4B10B5DE
:1004D8005A6802F00C02042A01D0082A01D0194AED
:1004E8000EE05A685968C2F38342CC0302F1020253
:1004F80002D55968890301D5134900E011494A43D7
:1005080002605A681149C2F303128C5C0268E24027
:1005180042605C68C4F302240C5D22FA04F484602F
:100528005C68C4F3C224095DCA40C2605B680849BC
:10053800C3F38133CB5CB2FBF3F2026110BD00BFA1
:100548000010024000127A0000093D00200000203F
:100558001C000020044B9A6909B1104301E022EA0B
:1005680000009861704700BF00100240CB78F0B5DA
:10057800DA0648BF8A78098803F00F0548BF154393
:1005880011F0FF0F1DD0046800220127974007EAE9
:100598000106BE4211D197004FF00F0C0CFA07FC70
:1005A80005FA07F724EA0C04282B44EA070401D1CA
:1005B800466102E0482B08BF06610132082AE4D1EF
:1005C8000460FF291FD94468002202F108060127A8
:1005D800B74007EA0106BE4211D197004FF00F0C51
:1005E8000CFA07FC05FA07F724EA0C04282B44EA5E
:1005F800070401D1466102E0482B08BF06610132B9
:10060800082AE2D14460F0BD806880B27047016179
:1006180070474161704701F003039B000F229A4025
:10062800984001F0FC0101F1804101F5803110B5DD
:100638008C6824EA02028A608A6802438A6010BDD4
:10064800038ACA889BB223F44053134330B503820C
:100658000D4682890989AB8892B20B43698922F4D5
:10066800B0520B4322F00C0213439BB28381838A5E
:10067800AA899BB223F4407387B01343044683824C
:1006880001A8FFF723FF1749049A039B8C4208BF70
:100698001346A289192112B25943002A2A684FF039
:1006A8006403B4BF52009200B1FBF2F1B1FBF3F264
:1006B8001201100903FB1011A08900B2002806DA04
:1006C800C9003231B1FBF3F303F0070305E0090178
:1006D8003231B1FBF3F303F00F031A4392B22281D4
:1006E80007B030BD00380140838919B19BB243F48B
:1006F800005303E023F400531B041B0C8381704751
:10070800C1F3080181807047837930B501680279A7
:1007180043B3194BCC431D6802F1804225401D604C
:100728005D6802F582322C405C60146821431160D8
:1007380002689C68D1430C409C60DC682140D96009
:100748004179102906D1996811439960D9680A43FB
:10075800DA6030BD01F1804303F5823319680A433A
:100768001A6030BD02F1804303F582331A6822EA29
:100778000101196030BD00BF00040140054B1A6833
:100788005B69034004D010420CBF00200120704771
:100798001846704700040140014B5861704700BF7C
:1007A80000040140074BC0081A6822F004021A60CE
:1007B800054B1870C0EB401300EB8300034BC000DF
:1007C8001880704710E000E031000020320000205F
:1007D800094B00221B885843084B58609A60012235
:1007E8001A601968054A01F001110129F9D000239E
:1007F80013609360704700BF3200002010E000E0F3
:10080800F0B589B0FFF77CFD4820FFF7CBFF042047
:100818000121FFF79FFE10200121FFF79BFE2020FA
:100828000121FFF797FE4FF480400121FFF792FE68
:1008380001200146FFF78EFE4FF400730324ADF844
:10084800003046481823694604258DF802408DF883
:100858000330FFF78BFE4FF4806340486946ADF8DC
:1008680000308DF802408DF80350FFF77FFEFF231C
:100878003A486946ADF800308DF802408DF80350CB
:10088800FFF774FE4FF6FF73354869460126ADF849
:1008980000308DF802408DF80350FFF767FE1023F3
:1008A800304869468DF803304FF40067ADF80050C2
:1008B8008DF80260FFF75AFE284869468DF8024015
:1008C800ADF800708DF80350FFF750FE4FF4E13398
:1008D8000024049324480C2304A9ADF81A30ADF879
:1008E8001440ADF81640ADF81840ADF81C40FFF7BD
:1008F800A7FE1D483146FFF7F7FE0B212046FFF7FC
:100908008AFE08230DEB03008DF80D3002978DF851
:100918000C408DF80E60FFF7F7FE4FF4E060FFF72C
:1009280097FD28230DEB05008DF804308DF806405F
:100938008DF805408DF80760FFF794FD6420FFF7F8
:1009480047FF04210748FFF762FE6420FFF740FFD6
:1009580004480421FFF75DFEF0E700BF00080140EE
:1009680000100140001401400038014010B54FF458
:100978000060FFF703FFA0B14FF40060FFF70CFF22
:1009880000BF00BF0748FFF73FFE0446C4F30F212E
:100998000548FFF7B5FEE1B20348BDE81040FFF790
:0C09A800AFBE10BD00100140003801403F
:1009B40030000020000000000000000000000000E3
:1009C400010203040607080900A24A0402040608F7
:1009D40000000000010203040102030406070809E1
:04000005080001E509
:00000001FF
